{
  "contractName": "Vote",
  "abi": [
    {
      "constant": false,
      "inputs": [],
      "name": "stopContract",
      "outputs": [],
      "payable": false,
      "stateMutability": "nonpayable",
      "type": "function",
      "signature": "0x12253a6c"
    },
    {
      "constant": true,
      "inputs": [],
      "name": "candidatesCount",
      "outputs": [
        {
          "name": "",
          "type": "uint256"
        }
      ],
      "payable": false,
      "stateMutability": "view",
      "type": "function",
      "signature": "0x2d35a8a2"
    },
    {
      "constant": true,
      "inputs": [
        {
          "name": "",
          "type": "uint256"
        }
      ],
      "name": "candidates",
      "outputs": [
        {
          "name": "id",
          "type": "uint256"
        },
        {
          "name": "name",
          "type": "string"
        },
        {
          "name": "voteCount",
          "type": "uint256"
        },
        {
          "name": "party",
          "type": "string"
        }
      ],
      "payable": false,
      "stateMutability": "view",
      "type": "function",
      "signature": "0x3477ee2e"
    },
    {
      "constant": false,
      "inputs": [],
      "name": "kill",
      "outputs": [],
      "payable": false,
      "stateMutability": "nonpayable",
      "type": "function",
      "signature": "0x41c0e1b5"
    },
    {
      "constant": true,
      "inputs": [
        {
          "name": "",
          "type": "uint256"
        }
      ],
      "name": "parties",
      "outputs": [
        {
          "name": "acronym",
          "type": "string"
        },
        {
          "name": "partyName",
          "type": "string"
        },
        {
          "name": "number",
          "type": "uint256"
        }
      ],
      "payable": false,
      "stateMutability": "view",
      "type": "function",
      "signature": "0x70651a18"
    },
    {
      "constant": true,
      "inputs": [],
      "name": "owner",
      "outputs": [
        {
          "name": "",
          "type": "address"
        }
      ],
      "payable": false,
      "stateMutability": "view",
      "type": "function",
      "signature": "0x8da5cb5b"
    },
    {
      "constant": true,
      "inputs": [
        {
          "name": "",
          "type": "address"
        }
      ],
      "name": "voters",
      "outputs": [
        {
          "name": "",
          "type": "bool"
        }
      ],
      "payable": false,
      "stateMutability": "view",
      "type": "function",
      "signature": "0xa3ec138d"
    },
    {
      "constant": false,
      "inputs": [],
      "name": "resumeContract",
      "outputs": [],
      "payable": false,
      "stateMutability": "nonpayable",
      "type": "function",
      "signature": "0xc4bc5da5"
    },
    {
      "constant": false,
      "inputs": [],
      "name": "deposit",
      "outputs": [],
      "payable": true,
      "stateMutability": "payable",
      "type": "function",
      "signature": "0xd0e30db0"
    },
    {
      "constant": true,
      "inputs": [],
      "name": "emergencyWithdraw",
      "outputs": [],
      "payable": false,
      "stateMutability": "view",
      "type": "function",
      "signature": "0xdb2e21bc"
    },
    {
      "inputs": [],
      "payable": false,
      "stateMutability": "nonpayable",
      "type": "constructor",
      "signature": "constructor"
    },
    {
      "anonymous": false,
      "inputs": [
        {
          "indexed": true,
          "name": "_candidateId",
          "type": "uint256"
        }
      ],
      "name": "votedEvent",
      "type": "event",
      "signature": "0xfff3c900d938d21d0990d786e819f29b8d05c1ef587b462b939609625b684b16"
    },
    {
      "constant": false,
      "inputs": [
        {
          "name": "_candidateId",
          "type": "uint256"
        }
      ],
      "name": "vote",
      "outputs": [],
      "payable": false,
      "stateMutability": "nonpayable",
      "type": "function",
      "signature": "0x0121b93f"
    }
  ],
  "bytecode": "0x608060405260008060146101000a81548160ff0219169083151502179055503480156200002b57600080fd5b50336000806101000a81548173ffffffffffffffffffffffffffffffffffffffff021916908373ffffffffffffffffffffffffffffffffffffffff16021790555033600160006101000a81548173ffffffffffffffffffffffffffffffffffffffff021916908373ffffffffffffffffffffffffffffffffffffffff160217905550620001326040805190810160405280600b81526020017f416c7661726f20446961730000000000000000000000000000000000000000008152506040805190810160405280600481526020017f504f44450000000000000000000000000000000000000000000000000000000081525062000774640100000000026401000000009004565b620001b76040805190810160405280600c81526020017f4361626f20446163696f6c6f00000000000000000000000000000000000000008152506040805190810160405280600581526020017f504154524900000000000000000000000000000000000000000000000000000081525062000774640100000000026401000000009004565b6200023c6040805190810160405280600a81526020017f4369726f20476f6d6573000000000000000000000000000000000000000000008152506040805190810160405280600381526020017f504454000000000000000000000000000000000000000000000000000000000081525062000774640100000000026401000000009004565b620002c16040805190810160405280600681526020017f45796d61656c00000000000000000000000000000000000000000000000000008152506040805190810160405280600281526020017f444300000000000000000000000000000000000000000000000000000000000081525062000774640100000000026401000000009004565b620003466040805190810160405280600f81526020017f4665726e616e646f2048616464616400000000000000000000000000000000008152506040805190810160405280600281526020017f505400000000000000000000000000000000000000000000000000000000000081525062000774640100000000026401000000009004565b620003cb6040805190810160405280600f81526020017f476572616c646f20416c636b6d696e00000000000000000000000000000000008152506040805190810160405280600481526020017f505344420000000000000000000000000000000000000000000000000000000081525062000774640100000000026401000000009004565b620004506040805190810160405280601081526020017f4775696c6865726d6520426f756c6f73000000000000000000000000000000008152506040805190810160405280600481526020017f50534f4c0000000000000000000000000000000000000000000000000000000081525062000774640100000000026401000000009004565b620004d56040805190810160405280601281526020017f48656e7269717565204d656972656c6c657300000000000000000000000000008152506040805190810160405280600381526020017f4d4442000000000000000000000000000000000000000000000000000000000081525062000774640100000000026401000000009004565b6200055a6040805190810160405280600e81526020017f4a61697220426f6c736f6e61726f0000000000000000000000000000000000008152506040805190810160405280600381526020017f50534c000000000000000000000000000000000000000000000000000000000081525062000774640100000000026401000000009004565b620005df6040805190810160405280600d81526020017f4a6fc3a36f20416d6fc3aa646f000000000000000000000000000000000000008152506040805190810160405280600481526020017f4e4f564f0000000000000000000000000000000000000000000000000000000081525062000774640100000000026401000000009004565b620006646040805190810160405280601381526020017f4a6fc3a36f20476f756c6172742046696c686f000000000000000000000000008152506040805190810160405280600381526020017f50504c000000000000000000000000000000000000000000000000000000000081525062000774640100000000026401000000009004565b620006e96040805190810160405280600c81526020017f4d6172696e612053696c766100000000000000000000000000000000000000008152506040805190810160405280600481526020017f524544450000000000000000000000000000000000000000000000000000000081525062000774640100000000026401000000009004565b6200076e6040805190810160405280600481526020017f56657261000000000000000000000000000000000000000000000000000000008152506040805190810160405280600481526020017f505354550000000000000000000000000000000000000000000000000000000081525062000774640100000000026401000000009004565b620008c8565b60056000815480929190600101919050555060806040519081016040528060055481526020018381526020016000815260200182815250600360006005548152602001908152602001600020600082015181600001556020820151816001019080519060200190620007e892919062000819565b506040820151816002015560608201518160030190805190602001906200081192919062000819565b509050505050565b828054600181600116156101000203166002900490600052602060002090601f016020900481019282601f106200085c57805160ff19168380011785556200088d565b828001600101855582156200088d579182015b828111156200088c5782518255916020019190600101906200086f565b5b5090506200089c9190620008a0565b5090565b620008c591905b80821115620008c1576000816000905550600101620008a7565b5090565b90565b610a0c80620008d86000396000f3fe6080604052600436106100af576000357c0100000000000000000000000000000000000000000000000000000000900463ffffffff1680630121b93f146100b457806312253a6c146100ef5780632d35a8a2146101065780633477ee2e1461013157806341c0e1b51461025f57806370651a18146102765780638da5cb5b1461039d578063a3ec138d146103f4578063c4bc5da51461045d578063d0e30db014610474578063db2e21bc1461047e575b600080fd5b3480156100c057600080fd5b506100ed600480360360208110156100d757600080fd5b8101908080359060200190929190505050610495565b005b3480156100fb57600080fd5b506101046105d5565b005b34801561011257600080fd5b5061011b6105f2565b6040518082815260200191505060405180910390f35b34801561013d57600080fd5b5061016a6004803603602081101561015457600080fd5b81019080803590602001909291905050506105f8565b604051808581526020018060200184815260200180602001838103835286818151815260200191508051906020019080838360005b838110156101ba57808201518184015260208101905061019f565b50505050905090810190601f1680156101e75780820380516001836020036101000a031916815260200191505b50838103825284818151815260200191508051906020019080838360005b83811015610220578082015181840152602081019050610205565b50505050905090810190601f16801561024d5780820380516001836020036101000a031916815260200191505b50965050505050505060405180910390f35b34801561026b57600080fd5b50610274610758565b005b34801561028257600080fd5b506102af6004803603602081101561029957600080fd5b81019080803590602001909291905050506107e9565b604051808060200180602001848152602001838103835286818151815260200191508051906020019080838360005b838110156102f95780820151818401526020810190506102de565b50505050905090810190601f1680156103265780820380516001836020036101000a031916815260200191505b50838103825285818151815260200191508051906020019080838360005b8381101561035f578082015181840152602081019050610344565b50505050905090810190601f16801561038c5780820380516001836020036101000a031916815260200191505b509550505050505060405180910390f35b3480156103a957600080fd5b506103b2610943565b604051808273ffffffffffffffffffffffffffffffffffffffff1673ffffffffffffffffffffffffffffffffffffffff16815260200191505060405180910390f35b34801561040057600080fd5b506104436004803603602081101561041757600080fd5b81019080803573ffffffffffffffffffffffffffffffffffffffff169060200190929190505050610969565b604051808215151515815260200191505060405180910390f35b34801561046957600080fd5b50610472610989565b005b61047c6109a5565b005b34801561048a57600080fd5b506104936109c3565b005b600060149054906101000a900460ff161515156104b157600080fd5b600260003373ffffffffffffffffffffffffffffffffffffffff1673ffffffffffffffffffffffffffffffffffffffff16815260200190815260200160002060009054906101000a900460ff1615151561050a57600080fd5b60008111801561051c57506005548111155b151561052757600080fd5b6001600260003373ffffffffffffffffffffffffffffffffffffffff1673ffffffffffffffffffffffffffffffffffffffff16815260200190815260200160002060006101000a81548160ff0219169083151502179055506003600082815260200190815260200160002060020160008154809291906001019190505550807ffff3c900d938d21d0990d786e819f29b8d05c1ef587b462b939609625b684b1660405160405180910390a250565b6001600060146101000a81548160ff021916908315150217905550565b60055481565b6003602052806000526040600020600091509050806000015490806001018054600181600116156101000203166002900480601f0160208091040260200160405190810160405280929190818152602001828054600181600116156101000203166002900480156106aa5780601f1061067f576101008083540402835291602001916106aa565b820191906000526020600020905b81548152906001019060200180831161068d57829003601f168201915b505050505090806002015490806003018054600181600116156101000203166002900480601f01602080910402602001604051908101604052809291908181526020018280546001816001161561010002031660029004801561074e5780601f106107235761010080835404028352916020019161074e565b820191906000526020600020905b81548152906001019060200180831161073157829003601f168201915b5050505050905084565b6000809054906101000a900473ffffffffffffffffffffffffffffffffffffffff1673ffffffffffffffffffffffffffffffffffffffff163373ffffffffffffffffffffffffffffffffffffffff1614156107e7576000809054906101000a900473ffffffffffffffffffffffffffffffffffffffff1673ffffffffffffffffffffffffffffffffffffffff16ff5b565b6004602052806000526040600020600091509050806000018054600181600116156101000203166002900480601f0160208091040260200160405190810160405280929190818152602001828054600181600116156101000203166002900480156108955780601f1061086a57610100808354040283529160200191610895565b820191906000526020600020905b81548152906001019060200180831161087857829003601f168201915b505050505090806001018054600181600116156101000203166002900480601f0160208091040260200160405190810160405280929190818152602001828054600181600116156101000203166002900480156109335780601f1061090857610100808354040283529160200191610933565b820191906000526020600020905b81548152906001019060200180831161091657829003601f168201915b5050505050908060020154905083565b600160009054906101000a900473ffffffffffffffffffffffffffffffffffffffff1681565b60026020528060005260406000206000915054906101000a900460ff1681565b60008060146101000a81548160ff021916908315150217905550565b600060149054906101000a900460ff161515156109c157600080fd5b565b600060149054906101000a900460ff1615156109de57600080fd5b56fea165627a7a72305820f8081a561f038227d86795ad2a8e2734c118b9cea7f4cfee5202596ad58fa3220029",
  "source": "pragma solidity ^0.5.0;\n\nimport \"./Stop.sol\";\n\ncontract Vote is Stop {\n    \n    struct Candidate {\n        uint id;\n        string name;\n        uint voteCount;\n        string party;\n\n    }\n\n    struct Party {\n        string acronym;\n        string partyName;\n        uint number;\n    }\n\n    address public owner;\n    mapping(address => bool) public voters;\n    mapping(uint => Candidate) public candidates;\n    mapping(uint => Party) public parties;\n    \n    uint public candidatesCount;\n\n    event votedEvent (\n        uint indexed _candidateId\n    );\n\n    constructor() public {\n        owner = msg.sender;\n\n        addCandidate(\"Alvaro Dias\", \"PODE\");\n        addCandidate(\"Cabo Daciolo\", \"PATRI\");\n        addCandidate(\"Ciro Gomes\", \"PDT\");\n        addCandidate(\"Eymael\", \"DC\");\n        addCandidate(\"Fernando Haddad\", \"PT\");\n        addCandidate(\"Geraldo Alckmin\", \"PSDB\");\n        addCandidate(\"Guilherme Boulos\", \"PSOL\");\n        addCandidate(\"Henrique Meirelles\", \"MDB\");\n        addCandidate(\"Jair Bolsonaro\", \"PSL\");\n        addCandidate(\"João Amoêdo\", \"NOVO\");\n        addCandidate(\"João Goulart Filho\", \"PPL\");\n        addCandidate(\"Marina Silva\", \"REDE\");\n        addCandidate(\"Vera\", \"PSTU\");\n    }\n\n    function addCandidate (string memory _name, string memory _party) private {\n        candidatesCount ++;\n        candidates[candidatesCount] = Candidate(candidatesCount, _name, 0, _party);\n    }\n\n    function vote (uint _candidateId) public emergencySwitch {\n        require(!voters[msg.sender]);\n        require(_candidateId > 0 && _candidateId <= candidatesCount);\n        voters[msg.sender] = true;\n        candidates[_candidateId].voteCount ++;\n        emit votedEvent(_candidateId);\n    }\n}\n",
  "sourcePath": "/home/rafael/Projetos/solidityexperiments/NewBrazilianPresidentialElection/contracts/Vote.sol",
  "compiler": {
    "name": "solc",
    "version": "0.5.0+commit.1d4f565a.Emscripten.clang"
  },
  "schemaVersion": "3.0.0",
  "updatedAt": "2019-01-27T04:35:41.845Z",
  "devdoc": {
    "methods": {}
  },
  "userdoc": {
    "methods": {}
  }
}